S01500004C4142325F4449474954414C322E737265637F
S11300000C943B000C9458000C9458000C94580029
S11300100C9458000C9458000C9458000C945800FC
S11300200C9458000C9458000C9458000C945800EC
S11300300C9458000C9458000C9458000C945800DC
S11300400C9458000C9458000C94CB020C94580057
S11300500C9458000C947F020C9458000C94580093
S11300600C9458000C945800DC00E200E800EE0008
S1130070F400FA00000111241FBECFEFD8E0DEBF68
S1130080CDBF11E0A0E0B1E0E2E6F0E102C00590EE
S11300900D92A433B107D9F721E0A4E3B1E001C084
S11300A01D92AC33B207E1F70E9407020C942F08AB
S11300B00C94000010927C00811106C0ECE7F0E083
S11300C080818F7D808305C0ECE7F0E080818062D1
S11300D08083613019F0623039F00BC0ECE7F0E056
S11300E08081806C808305C0ECE7F0E080818064CF
S11300F0808310927A00411106C0EAE7F0E0808123
S1130100877F808305C0EAE7F0E080818860808390
S11301102031D9F038F4243061F0283081F02230D5
S113012061F530C02034E9F0203809F1203229F596
S113013012C0EAE7F0E080818260808323C0EAE7AE
S1130140F0E08081836080831DC0EAE7F0E0808175
S11301508460808317C0EAE7F0E080818560808353
S113016011C0EAE7F0E08081866080830BC0EAE793
S1130170F0E080818760808305C0EAE7F0E0808159
S113018087608083EAE7F0E08081806480838081F7
S1130190806880830895E82FACE7B0E08C91807F7D
S11301A08C938E2F90E0FC013197E730F10568F5D0
S11301B0EC5CFF4F0C943F05ECE7F0E0808181603C
S11301C080830895ECE7F0E0808182608083089565
S11301D0ECE7F0E08081836080830895ECE7F0E051
S11301E08081846080830895ECE7F0E080818560FD
S11301F080830895ECE7F0E0808186608083089531
S1130200ECE7F0E0808187608083089580FF04C07C
S113021095B1906295B903C095B19F7D95B981FF61
S113022004C095B1906195B903C095B19F7E95B90D
S113023082FF04C09BB194609BB903C09BB19B7FB8
S11302409BB983FF04C09BB198609BB903C09BB169
S1130250977F9BB984FF04C09BB190619BB903C095
S11302609BB19F7E9BB985FF04C09BB190629BB9F3
S113027003C09BB19F7D9BB986FF04C09BB1906472
S11302809BB903C09BB19F7B9BB9882324F48BB19A
S113029080688BB908958BB18F778BB9089595B128
S11302A0977F95B90E94060185B1846085B98FE96D
S11302B09FE00197F1F700C0000085B18B7F85B9FD
S11302C008958AB18C6F8AB91BB884B18C6384B9E0
S11302D015B880E00E9406012FEF89EF90E02150CD
S11302E080409040E1F700C0000088E30E944F0185
S11302F08CE00E944F0181E00E944F0186E00E9441
S11303004F01089595B1986095B90E94060185B191
S1130310846085B98FE79EE30197F1F700C0000080
S113032085B18B7F85B98FE891E00197F1F700C023
S1130330000008950F931F93CF93DF938C01C0E0C7
S1130340D0E003C00E9482012196F801EC0FFD1F4A
S113035080818111F7CFDF91CF911F910F91089583
S1130360613021F481580E944F010895623019F4DC
S113037081540E944F010895F89420E841E062E01E
S113038080E00E945A0087E60E9404030E946101F3
S11303907894EAE7F0E08081806480830895CF92C6
S11303A0DF92EF92FF9260913A0170913B0180E0FD
S11303B090E00E94440420E030E040EA50E40E94CF
S11303C0D20420E030EC4FE754E40E94A3036B0115
S11303D07C010E9415046093360170E080E090E097
S11303E00E9444049B01AC01C701B6010E9436037C
S11303F020E030E048EC52E40E94D2040E9415044C
S113040060933501FF90EF90DF90CF900895CF93E4
S1130410DF93CDB7DEB7A0970FB6F894DEBF0FBE5B
S1130420CDBF0E94BC0161E081E00E94B0010E9446
S1130430CF01809135011F928F93809136011F92D5
S11304408F9380E091E09F938F938E010F5F1F4FF6
S11304501F930F930E944505C8010E949A0162E010
S113046081E00E94B00180913801909139019F93FD
S11304708F938DE091E09F938F931F930F930E942E
S11304804505C8010E949A0161E08BE00E94B00119
S1130490809134011F928F9385E191E09F938F9314
S11304A01F930F930E944505C8010E949A018091F1
S11304B03801909139019F938F93809135011F9258
S11304C08F93809136011F928F938CE191E09F93DB
S11304D08F931F930F930E944505C8010E94230325
S11304E02FEF81EE94E0215080409040E1F700C06E
S11304F000000FB6F894DEBF0FBECDBF94CF1F929D
S11305000F920FB60F9211242F933F934F935F9343
S11305106F937F938F939F93AF93BF93EF93FF93C7
S1130520809137018F5F80933701823081F083306F
S1130530D1F08130D1F487E00E94CB008091780023
S11305409091790090933B0180933A010EC086E02C
S11305500E94CB00809178009091790090933901AA
S11305608093380102C010923701EAE7F0E08081FD
S113057080648083FF91EF91BF91AF919F918F91A0
S11305807F916F915F914F913F912F910F900FBE8B
S11305900F901F9018951F920F920FB60F9211246F
S11305A02F933F934F935F936F937F938F939F9377
S11305B0AF93BF93CF93EF93FF93C091C6008C2F5B
S11305C00E941C03CB3219F0CD3239F00BC080915C
S11305D034018F5F8093340105C0809134018150D0
S11305E080933401FF91EF91CF91BF91AF919F918F
S11305F08F917F916F915F914F913F912F910F90C8
S11306000FBE0F901F9018959AB192609AB99AB143
S11306109E7F9AB91092C000E1ECF0E09081986955
S11306209083E2ECF0E090819660908390E0909368
S1130630C5008093C40008959091C00095FFFCCF3D
S11306408093C60008950F931F93CF938C01C0E04D
S113065003C00E941C03CF5FF801EC0FF11D8081E1
S11306608111F7CFCF911F910F9108955058BB2757
S1130670AA270E944E030C9498040E948A0438F01E
S11306800E94910420F039F49F3F19F426F40C944D
S113069087040EF4E095E7FB0C948104E92F0E9493
S11306A0A90458F3BA17620773078407950720F063
S11306B079F4A6F50C94CB040EF4E0950B2EBA2F26
S11306C0A02D0B01B90190010C01CA01A001112454
S11306D0FF27591B99F0593F50F4503E68F11A1600
S11306E0F040A22F232F342F4427585FF3CF469591
S11306F037952795A795F0405395C9F77EF41F16B3
S1130700BA0B620B730B840BBAF09150A1F0FF0F7C
S1130710BB1F661F771F881FC2F70EC0BA0F621F68
S1130720731F841F48F4879577956795B795F79558
S11307309E3F08F0B0CF9395880F08F09927EE0FED
S11307409795879508950E94B7030C9498040E9486
S1130750910458F00E948A0440F029F45F3F29F084
S11307600C94810451110C94CC040C9487040E94C1
S1130770A90468F39923B1F3552391F3951B550B01
S1130780BB27AA2762177307840738F09F5F5F4F60
S1130790220F331F441FAA1FA9F335D00E2E3AF09F
S11307A0E0E832D091505040E695001CCAF72BD0B7
S11307B0FE2F29D0660F771F881FBB1F2617370708
S11307C04807AB07B0E809F0BB0B802DBF01FF273A
S11307D093585F4F3AF09E3F510578F00C94810492
S11307E00C94CC045F3FE4F3983ED4F3869577955C
S11307F06795B795F7959F5FC9F7880F911D9695F3
S1130800879597F90895E1E0660F771F881FBB1F4E
S1130810621773078407BA0720F0621B730B840BFB
S1130820BA0BEE1F88F7E09508950E94B10488F092
S11308309F5798F0B92F9927B751B0F0E1F0660FA0
S1130840771F881F991F1AF0BA95C9F714C0B130E1
S113085091F00E94CB04B1E008950C94CB04672F6F
S1130860782F8827B85F39F0B93FCCF38695779510
S11308706795B395D9F73EF49095809570956195F9
S11308807F4F8F4F9F4F0895E89409C097FB3EF424
S113089090958095709561957F4F8F4F9F4F9923C9
S11308A0A9F0F92F96E9BB279395F6958795779547
S11308B06795B795F111F8CFFAF4BB0F11F460FF07
S11308C01BC06F5F7F4F8F4F9F4F16C0882311F05F
S11308D096E911C0772321F09EE8872F762F05C073
S11308E0662371F096E8862F70E060E02AF09A950E
S11308F0660F771F881FDAF7880F9695879597F903
S1130900089597F99F6780E870E060E008959FEF8D
S113091080EC089500240A94161617061806090692
S1130920089500240A941216130614060506089561
S1130930092E0394000C11F4882352F0BB0F40F4E9
S1130940BF2B11F460FF04C06F5F7F4F8F4F9F4F29
S1130950089557FD9058440F551F59F05F3F71F0AB
S11309604795880F97FB991F61F09F3F79F0879512
S11309700895121613061406551FF2CF4695F1DF9B
S113098008C0161617061806991FF1CF869571052B
S1130990610508940895E894BB2766277727CB015F
S11309A097F908950E94E5040C9498040E948A041F
S11309B038F00E94910420F0952311F00C948104E6
S11309C00C94870411240C94CC040E94A90470F3A1
S11309D0959FC1F3950F50E0551F629FF001729FE0
S11309E0BB27F00DB11D639FAA27F00DB11DAA1FEF
S11309F0649F6627B00DA11D661F829F2227B00D3C
S1130A00A11D621F739FB00DA11D621F839FA00DC6
S1130A10611D221F749F3327A00D611D231F849F16
S1130A20600D211D822F762F6A2F11249F5750406D
S1130A309AF0F1F088234AF0EE0FFF1FBB1F661FE8
S1130A40771F881F91505040A9F79E3F510580F0B1
S1130A500C9481040C94CC045F3FE4F3983ED4F3EB
S1130A60869577956795B795F795E7959F5FC1F755
S1130A70FE2B880F911D9695879597F90895EE0F93
S1130A80FF1F0590F491E02D0994AEE0B0E0EBE493
S1130A90F5E00C9406080D891E8986E08C831A8380
S1130AA009838FEF9FE79E838D83AE01475E5F4F7F
S1130AB06F89788DCE0101960E946705EF81F885D4
S1130AC0E00FF11F10822E96E4E00C942208ABE0B4
S1130AD0B0E0EDE6F5E00C94F8076C017B018A01C7
S1130AE0FC0117821682838181FFCCC1CE0101965D
S1130AF03C01F6019381F70193FD859193FF819168
S1130B007F01882309F4BAC1853239F493FD8591B4
S1130B1093FF81917F01853229F4B60190E00E9410
S1130B205E07E7CF912C212C312CFFE1F315D8F08F
S1130B308B3279F038F4803279F08332A1F4232DAA
S1130B4020611DC08D3261F0803369F4232D216052
S1130B5016C0832D8260382EE32DE4603E2E2AC019
S1130B60F32DF8601DC037FC2DC020ED280F2A306E
S1130B7040F08E32B9F436FC81C1232D2064322E2C
S1130B8019C036FE06C08AE0989E200D1124922ECC
S1130B9011C0EAE02E9E200D1124222EF32DF062C6
S1130BA03F2E08C08C3621F4832D8068382E02C075
S1130BB0883641F4F70193FD859193FF81917F017C
S1130BC08111B3CF982F9F7D9554933028F40C5FF7
S1130BD01F4F9FE399830DC0833631F0833771F043
S1130BE0833509F059C021C0F801808189830E5FE3
S1130BF01F4F88248394912C530113C02801F2E0E1
S1130C004F0E511CF801A080B18036FE03C0692D3F
S1130C1070E002C06FEF7FEFC5010E9453074C01E3
S1130C208201F32DFF773F2E16C0280122E0420EE9
S1130C30511CF801A080B18036FE03C0692D70E01C
S1130C4002C06FEF7FEFC5010E9448074C01F32DEE
S1130C50F0683F2E820133FC1BC0822D90E0881681
S1130C609906B0F4B60180E290E00E945E072A94EF
S1130C70F4CFF50137FC859137FE81915F01B60110
S1130C8090E00E945E0721102A9421E0821A9108C4
S1130C908114910471F7E8C0843611F0893641F566
S1130CA0F80137FE07C060817181828193810C5FF6
S1130CB01F4F08C060817181072E000C880B990BAF
S1130CC00E5F1F4FF32DFF763F2E97FF09C09095BF
S1130CD08095709561957F4F8F4F9F4FF0683F2EA1
S1130CE02AE030E0A3010E949A07882E861845C0A6
S1130CF0853731F4232D2F7EB22E2AE030E025C033
S1130D00932D997FB92E8F36C1F018F4883579F078
S1130D10B5C0803719F0883721F0B0C0E92FE06101
S1130D20BE2EB4FE0DC0FB2DF460BF2E09C034FEF0
S1130D300AC0292F2660B22E06C028E030E005C084
S1130D4020E130E002C020E132E0F801B7FE07C044
S1130D5060817181828193810C5F1F4F06C0608125
S1130D60718180E090E00E5F1F4FA3010E949A07FB
S1130D70882E8618FB2DFF773F2E36FE0DC0232DBF
S1130D802E7FA22E891458F434FE0BC032FC09C005
S1130D90832D8E7EA82E05C0B82CA32C03C0B82C9E
S1130DA001C0B92CA4FE0FC0FE01E80DF11D808125
S1130DB0803321F49A2D997EA92E09C0A2FE06C083
S1130DC0B394B39404C08A2D867809F0B394A3FC39
S1130DD011C0A0FE06C0B21488F4280C922C9B18F3
S1130DE00EC0B21460F4B60180E290E00E945E0787
S1130DF0B394F7CFB21418F42B1802C0982C212CFA
S1130E00A4FE10C0B60180E390E00E945E07A2FE3B
S1130E1017C0A1FC03C088E790E002C088E590E019
S1130E20B6010CC08A2D867859F0A1FE02C08BE26F
S1130E3001C080E2A7FC8DE2B60190E00E945E074B
S1130E40891438F4B60180E390E00E945E079A9416
S1130E50F7CF8A94F301E80DF11D8081B60190E08B
S1130E600E945E078110F5CF222009F442CEB6011C
S1130E7080E290E00E945E072A94F6CFF601868114
S1130E80978102C08FEF9FEF2B96E2E10C94140838
S1130E90FC010590615070400110D8F78095909541
S1130EA08E0F9F1F0895FC01615070400190011046
S1130EB0D8F7809590958E0F9F1F08950F931F93D9
S1130EC0CF93DF93FB01238121FD03C08FEF9FEFBD
S1130ED02CC022FF16C046815781248135814217D8
S1130EE0530744F4A081B1819D012F5F3F4F3183AB
S1130EF020838C93268137812F5F3F4F378326834E
S1130F0014C08B01EC01FB010084F185E02D0995EF
S1130F10892BE1F6D80116968D919C91179701962D
S1130F2017969C938E931697CE01DF91CF911F91C4
S1130F300F910895FA01AA27283051F1203181F147
S1130F40E8946F936E7F6E5F7F4F8F4F9F4FAF4FCD
S1130F50B1E03ED0B4E03CD0670F781F891F9A1FE0
S1130F60A11D680F791F8A1F911DA11D6A0F711D94
S1130F70811D911DA11D20D009F468943F912AE0A0
S1130F80269F11243019305D3193DEF6CF01089588
S1130F90462F4770405D4193B3E00FD0C9F7F6CFB9
S1130FA0462F4F70405D4A3318F0495D31FD405281
S1130FB0419302D0A9F7EACFB4E0A6959795879517
S1130FC077956795BA95C9F70097610571050895F6
S1130FD09B01AC010A2E06945795479537952795A2
S1130FE0BA95C9F7620F731F841F951FA01D08953A
S1130FF02F923F924F925F926F927F928F929F9225
S1131000AF92BF92CF92DF92EF92FF920F931F9312
S1131010CF93DF93CDB7DEB7CA1BDB0B0FB6F894C3
S1131020DEBF0FBECDBF09942A88398848885F8403
S11310306E847D848C849B84AA84B984C884DF8074
S1131040EE80FD800C811B81AA81B981CE0FD11D58
S11310500FB6F894DEBF0FBECDBFED010895F8942E
S1051060FFCFBC
S113106253313A2025642E25303264560053323AE5
S1131072202533640053333A2533640053313A2034
S113108225642E2530326456202053323A202575A9
S10710920D0A00003F
S9030000FC
