S01500004C4142325F4449474954414C322E737265637F
S11300000C9434000C943E000C943E000C943E007E
S11300100C943E000C943E000C943E000C943E0064
S11300200C943E000C943E000C943E000C943E0054
S11300300C943E000C943E000C943E000C943E0044
S11300400C943E000C943E000C943E000C943E0034
S11300500C943E000C943E000C943E000C943E0024
S11300600C943E000C943E0011241FBECFEFD8E048
S1130070DEBFCDBF0E94F9000C940E010C94000069
S113008080FF04C095B1906295B903C095B19F7D7E
S113009095B981FF04C095B1906195B903C095B13C
S11300A09F7E95B982FF04C09BB194609BB903C045
S11300B09BB19B7F9BB983FF04C09BB198609BB9A4
S11300C003C09BB1977F9BB984FF04C09BB190612F
S11300D09BB903C09BB19F7E9BB985FF04C09BB1B4
S11300E090629BB903C09BB19F7D9BB986FF04C0FE
S11300F09BB190649BB903C09BB19F7B9BB9882340
S113010024F48BB180688BB908958BB18F778BB948
S1130110089595B1977F95B90E94400085B1846098
S113012085B98FE99FE00197F1F700C0000085B120
S11301308B7F85B908958AB18C6F8AB91BB884B155
S11301408C6384B915B880E00E9440002FEF89EFDA
S113015090E0215080409040E1F700C0000088E327
S11301600E9489008CE00E94890081E00E9489003D
S113017086E00E948900089595B1986095B90E941F
S1130180400085B1846085B98FE79EE30197F1F75C
S113019000C0000085B18B7F85B98FE891E001979D
S11301A0F1F700C000000895613021F481580E94E5
S11301B089000895623019F481540E9489000895D9
S11301C08AB182608AB98AB18E7F8AB91092C000DE
S11301D0E1ECF0E0808188698083E2ECF0E08081EA
S11301E08660808387E690E09093C5008093C40086
S11301F008950E94E0000E949B0061E081E00E945B
S1130200D40088E40E94BC008FE40E94BC008CE40B
S11302100E94BC0081E40E94BC00FFCFF894FFCF91
S9030000FC
